{
  "contractName": "Bag",
  "abi": [
    {
      "inputs": [
        {
          "internalType": "address",
          "name": "_houseAddress",
          "type": "address"
        }
      ],
      "stateMutability": "nonpayable",
      "type": "constructor"
    },
    {
      "anonymous": false,
      "inputs": [
        {
          "indexed": true,
          "internalType": "address",
          "name": "owner",
          "type": "address"
        },
        {
          "indexed": true,
          "internalType": "address",
          "name": "approved",
          "type": "address"
        },
        {
          "indexed": true,
          "internalType": "uint256",
          "name": "tokenId",
          "type": "uint256"
        }
      ],
      "name": "Approval",
      "type": "event"
    },
    {
      "anonymous": false,
      "inputs": [
        {
          "indexed": true,
          "internalType": "address",
          "name": "owner",
          "type": "address"
        },
        {
          "indexed": true,
          "internalType": "address",
          "name": "operator",
          "type": "address"
        },
        {
          "indexed": false,
          "internalType": "bool",
          "name": "approved",
          "type": "bool"
        }
      ],
      "name": "ApprovalForAll",
      "type": "event"
    },
    {
      "anonymous": false,
      "inputs": [
        {
          "indexed": true,
          "internalType": "address",
          "name": "from",
          "type": "address"
        },
        {
          "indexed": true,
          "internalType": "address",
          "name": "to",
          "type": "address"
        },
        {
          "indexed": true,
          "internalType": "uint256",
          "name": "tokenId",
          "type": "uint256"
        }
      ],
      "name": "Transfer",
      "type": "event"
    },
    {
      "inputs": [
        {
          "internalType": "address",
          "name": "to",
          "type": "address"
        },
        {
          "internalType": "uint256",
          "name": "tokenId",
          "type": "uint256"
        }
      ],
      "name": "approve",
      "outputs": [],
      "stateMutability": "nonpayable",
      "type": "function"
    },
    {
      "inputs": [
        {
          "internalType": "address",
          "name": "owner",
          "type": "address"
        }
      ],
      "name": "balanceOf",
      "outputs": [
        {
          "internalType": "uint256",
          "name": "",
          "type": "uint256"
        }
      ],
      "stateMutability": "view",
      "type": "function",
      "constant": true
    },
    {
      "inputs": [
        {
          "internalType": "uint256",
          "name": "tokenId",
          "type": "uint256"
        }
      ],
      "name": "getApproved",
      "outputs": [
        {
          "internalType": "address",
          "name": "",
          "type": "address"
        }
      ],
      "stateMutability": "view",
      "type": "function",
      "constant": true
    },
    {
      "inputs": [
        {
          "internalType": "address",
          "name": "owner",
          "type": "address"
        },
        {
          "internalType": "address",
          "name": "operator",
          "type": "address"
        }
      ],
      "name": "isApprovedForAll",
      "outputs": [
        {
          "internalType": "bool",
          "name": "",
          "type": "bool"
        }
      ],
      "stateMutability": "view",
      "type": "function",
      "constant": true
    },
    {
      "inputs": [],
      "name": "name",
      "outputs": [
        {
          "internalType": "string",
          "name": "",
          "type": "string"
        }
      ],
      "stateMutability": "view",
      "type": "function",
      "constant": true
    },
    {
      "inputs": [
        {
          "internalType": "uint256",
          "name": "tokenId",
          "type": "uint256"
        }
      ],
      "name": "ownerOf",
      "outputs": [
        {
          "internalType": "address",
          "name": "",
          "type": "address"
        }
      ],
      "stateMutability": "view",
      "type": "function",
      "constant": true
    },
    {
      "inputs": [
        {
          "internalType": "address",
          "name": "from",
          "type": "address"
        },
        {
          "internalType": "address",
          "name": "to",
          "type": "address"
        },
        {
          "internalType": "uint256",
          "name": "tokenId",
          "type": "uint256"
        }
      ],
      "name": "safeTransferFrom",
      "outputs": [],
      "stateMutability": "nonpayable",
      "type": "function"
    },
    {
      "inputs": [
        {
          "internalType": "address",
          "name": "from",
          "type": "address"
        },
        {
          "internalType": "address",
          "name": "to",
          "type": "address"
        },
        {
          "internalType": "uint256",
          "name": "tokenId",
          "type": "uint256"
        },
        {
          "internalType": "bytes",
          "name": "_data",
          "type": "bytes"
        }
      ],
      "name": "safeTransferFrom",
      "outputs": [],
      "stateMutability": "nonpayable",
      "type": "function"
    },
    {
      "inputs": [
        {
          "internalType": "address",
          "name": "operator",
          "type": "address"
        },
        {
          "internalType": "bool",
          "name": "approved",
          "type": "bool"
        }
      ],
      "name": "setApprovalForAll",
      "outputs": [],
      "stateMutability": "nonpayable",
      "type": "function"
    },
    {
      "inputs": [
        {
          "internalType": "bytes4",
          "name": "interfaceId",
          "type": "bytes4"
        }
      ],
      "name": "supportsInterface",
      "outputs": [
        {
          "internalType": "bool",
          "name": "",
          "type": "bool"
        }
      ],
      "stateMutability": "view",
      "type": "function",
      "constant": true
    },
    {
      "inputs": [],
      "name": "symbol",
      "outputs": [
        {
          "internalType": "string",
          "name": "",
          "type": "string"
        }
      ],
      "stateMutability": "view",
      "type": "function",
      "constant": true
    },
    {
      "inputs": [
        {
          "internalType": "uint256",
          "name": "tokenId",
          "type": "uint256"
        }
      ],
      "name": "tokenURI",
      "outputs": [
        {
          "internalType": "string",
          "name": "",
          "type": "string"
        }
      ],
      "stateMutability": "view",
      "type": "function",
      "constant": true
    },
    {
      "inputs": [
        {
          "internalType": "address",
          "name": "from",
          "type": "address"
        },
        {
          "internalType": "address",
          "name": "to",
          "type": "address"
        },
        {
          "internalType": "uint256",
          "name": "tokenId",
          "type": "uint256"
        }
      ],
      "name": "transferFrom",
      "outputs": [],
      "stateMutability": "nonpayable",
      "type": "function"
    },
    {
      "inputs": [
        {
          "internalType": "string",
          "name": "_bagURI",
          "type": "string"
        }
      ],
      "name": "mintBag",
      "outputs": [
        {
          "internalType": "uint256",
          "name": "",
          "type": "uint256"
        }
      ],
      "stateMutability": "nonpayable",
      "type": "function"
    },
    {
      "inputs": [],
      "name": "totalSupply",
      "outputs": [
        {
          "internalType": "uint256",
          "name": "",
          "type": "uint256"
        }
      ],
      "stateMutability": "view",
      "type": "function",
      "constant": true
    }
  ],
  "bytecode": "0x60806040523480156200001157600080fd5b5060405162002ed638038062002ed6833981810160405281019062000037919062000239565b6040518060400160405280600881526020017f43686970204261670000000000000000000000000000000000000000000000008152506040518060400160405280600381526020017f42414700000000000000000000000000000000000000000000000000000000008152508160009080519060200190620000bb9291906200011f565b508060019080519060200190620000d49291906200011f565b50505080600860006101000a81548173ffffffffffffffffffffffffffffffffffffffff021916908373ffffffffffffffffffffffffffffffffffffffff16021790555050620002d0565b8280546200012d906200029a565b90600052602060002090601f0160209004810192826200015157600085556200019d565b82601f106200016c57805160ff19168380011785556200019d565b828001600101855582156200019d579182015b828111156200019c5782518255916020019190600101906200017f565b5b509050620001ac9190620001b0565b5090565b5b80821115620001cb576000816000905550600101620001b1565b5090565b600080fd5b600073ffffffffffffffffffffffffffffffffffffffff82169050919050565b60006200020182620001d4565b9050919050565b6200021381620001f4565b81146200021f57600080fd5b50565b600081519050620002338162000208565b92915050565b600060208284031215620002525762000251620001cf565b5b6000620002628482850162000222565b91505092915050565b7f4e487b7100000000000000000000000000000000000000000000000000000000600052602260045260246000fd5b60006002820490506001821680620002b357607f821691505b60208210811415620002ca57620002c96200026b565b5b50919050565b612bf680620002e06000396000f3fe608060405234801561001057600080fd5b50600436106100f55760003560e01c80636352211e11610097578063a22cb46511610066578063a22cb46514610298578063b88d4fde146102b4578063c87b56dd146102d0578063e985e9c514610300576100f5565b80636352211e146101ea57806370a082311461021a578063904f47241461024a57806395d89b411461027a576100f5565b8063095ea7b3116100d3578063095ea7b31461017857806318160ddd1461019457806323b872dd146101b257806342842e0e146101ce576100f5565b806301ffc9a7146100fa57806306fdde031461012a578063081812fc14610148575b600080fd5b610114600480360381019061010f919061196b565b610330565b60405161012191906119b3565b60405180910390f35b610132610412565b60405161013f9190611a67565b60405180910390f35b610162600480360381019061015d9190611abf565b6104a4565b60405161016f9190611b2d565b60405180910390f35b610192600480360381019061018d9190611b74565b610529565b005b61019c610641565b6040516101a99190611bc3565b60405180910390f35b6101cc60048036038101906101c79190611bde565b610652565b005b6101e860048036038101906101e39190611bde565b6106b2565b005b61020460048036038101906101ff9190611abf565b6106d2565b6040516102119190611b2d565b60405180910390f35b610234600480360381019061022f9190611c31565b610784565b6040516102419190611bc3565b60405180910390f35b610264600480360381019061025f9190611d93565b61083c565b6040516102719190611bc3565b60405180910390f35b6102826108a0565b60405161028f9190611a67565b60405180910390f35b6102b260048036038101906102ad9190611e08565b610932565b005b6102ce60048036038101906102c99190611ee9565b610ab3565b005b6102ea60048036038101906102e59190611abf565b610b15565b6040516102f79190611a67565b60405180910390f35b61031a60048036038101906103159190611f6c565b610c67565b60405161032791906119b3565b60405180910390f35b60007f80ac58cd000000000000000000000000000000000000000000000000000000007bffffffffffffffffffffffffffffffffffffffffffffffffffffffff1916827bffffffffffffffffffffffffffffffffffffffffffffffffffffffff191614806103fb57507f5b5e139f000000000000000000000000000000000000000000000000000000007bffffffffffffffffffffffffffffffffffffffffffffffffffffffff1916827bffffffffffffffffffffffffffffffffffffffffffffffffffffffff1916145b8061040b575061040a82610cfb565b5b9050919050565b60606000805461042190611fdb565b80601f016020809104026020016040519081016040528092919081815260200182805461044d90611fdb565b801561049a5780601f1061046f5761010080835404028352916020019161049a565b820191906000526020600020905b81548152906001019060200180831161047d57829003601f168201915b5050505050905090565b60006104af82610d65565b6104ee576040517f08c379a00000000000000000000000000000000000000000000000000000000081526004016104e59061207f565b60405180910390fd5b6004600083815260200190815260200160002060009054906101000a900473ffffffffffffffffffffffffffffffffffffffff169050919050565b6000610534826106d2565b90508073ffffffffffffffffffffffffffffffffffffffff168373ffffffffffffffffffffffffffffffffffffffff1614156105a5576040517f08c379a000000000000000000000000000000000000000000000000000000000815260040161059c90612111565b60405180910390fd5b8073ffffffffffffffffffffffffffffffffffffffff166105c4610dd1565b73ffffffffffffffffffffffffffffffffffffffff1614806105f357506105f2816105ed610dd1565b610c67565b5b610632576040517f08c379a0000000000000000000000000000000000000000000000000000000008152600401610629906121a3565b60405180910390fd5b61063c8383610dd9565b505050565b600061064d6007610e92565b905090565b61066361065d610dd1565b82610ea0565b6106a2576040517f08c379a000000000000000000000000000000000000000000000000000000000815260040161069990612235565b60405180910390fd5b6106ad838383610f7e565b505050565b6106cd83838360405180602001604052806000815250610ab3565b505050565b6000806002600084815260200190815260200160002060009054906101000a900473ffffffffffffffffffffffffffffffffffffffff169050600073ffffffffffffffffffffffffffffffffffffffff168173ffffffffffffffffffffffffffffffffffffffff16141561077b576040517f08c379a0000000000000000000000000000000000000000000000000000000008152600401610772906122c7565b60405180910390fd5b80915050919050565b60008073ffffffffffffffffffffffffffffffffffffffff168273ffffffffffffffffffffffffffffffffffffffff1614156107f5576040517f08c379a00000000000000000000000000000000000000000000000000000000081526004016107ec90612359565b60405180910390fd5b600360008373ffffffffffffffffffffffffffffffffffffffff1673ffffffffffffffffffffffffffffffffffffffff168152602001908152602001600020549050919050565b600061084860076111da565b60006108546007610e92565b905061086033826111f0565b61086a81846113be565b610897600860009054906101000a900473ffffffffffffffffffffffffffffffffffffffff166001610932565b80915050919050565b6060600180546108af90611fdb565b80601f01602080910402602001604051908101604052809291908181526020018280546108db90611fdb565b80156109285780601f106108fd57610100808354040283529160200191610928565b820191906000526020600020905b81548152906001019060200180831161090b57829003601f168201915b5050505050905090565b61093a610dd1565b73ffffffffffffffffffffffffffffffffffffffff168273ffffffffffffffffffffffffffffffffffffffff1614156109a8576040517f08c379a000000000000000000000000000000000000000000000000000000000815260040161099f906123c5565b60405180910390fd5b80600560006109b5610dd1565b73ffffffffffffffffffffffffffffffffffffffff1673ffffffffffffffffffffffffffffffffffffffff16815260200190815260200160002060008473ffffffffffffffffffffffffffffffffffffffff1673ffffffffffffffffffffffffffffffffffffffff16815260200190815260200160002060006101000a81548160ff0219169083151502179055508173ffffffffffffffffffffffffffffffffffffffff16610a62610dd1565b73ffffffffffffffffffffffffffffffffffffffff167f17307eab39ab6107e8899845ad3d59bd9653f200f220920489ca2b5937696c3183604051610aa791906119b3565b60405180910390a35050565b610ac4610abe610dd1565b83610ea0565b610b03576040517f08c379a0000000000000000000000000000000000000000000000000000000008152600401610afa90612235565b60405180910390fd5b610b0f84848484611432565b50505050565b6060610b2082610d65565b610b5f576040517f08c379a0000000000000000000000000000000000000000000000000000000008152600401610b5690612457565b60405180910390fd5b6000600660008481526020019081526020016000208054610b7f90611fdb565b80601f0160208091040260200160405190810160405280929190818152602001828054610bab90611fdb565b8015610bf85780601f10610bcd57610100808354040283529160200191610bf8565b820191906000526020600020905b815481529060010190602001808311610bdb57829003601f168201915b505050505090506000610c0961148e565b9050600081511415610c1f578192505050610c62565b600082511115610c54578082604051602001610c3c9291906124b3565b60405160208183030381529060405292505050610c62565b610c5d846114a5565b925050505b919050565b6000600560008473ffffffffffffffffffffffffffffffffffffffff1673ffffffffffffffffffffffffffffffffffffffff16815260200190815260200160002060008373ffffffffffffffffffffffffffffffffffffffff1673ffffffffffffffffffffffffffffffffffffffff16815260200190815260200160002060009054906101000a900460ff16905092915050565b60007f01ffc9a7000000000000000000000000000000000000000000000000000000007bffffffffffffffffffffffffffffffffffffffffffffffffffffffff1916827bffffffffffffffffffffffffffffffffffffffffffffffffffffffff1916149050919050565b60008073ffffffffffffffffffffffffffffffffffffffff166002600084815260200190815260200160002060009054906101000a900473ffffffffffffffffffffffffffffffffffffffff1673ffffffffffffffffffffffffffffffffffffffff1614159050919050565b600033905090565b816004600083815260200190815260200160002060006101000a81548173ffffffffffffffffffffffffffffffffffffffff021916908373ffffffffffffffffffffffffffffffffffffffff160217905550808273ffffffffffffffffffffffffffffffffffffffff16610e4c836106d2565b73ffffffffffffffffffffffffffffffffffffffff167f8c5be1e5ebec7d5bd14f71427d1e84f3dd0314c0f7b2291e5b200ac8c7c3b92560405160405180910390a45050565b600081600001549050919050565b6000610eab82610d65565b610eea576040517f08c379a0000000000000000000000000000000000000000000000000000000008152600401610ee190612549565b60405180910390fd5b6000610ef5836106d2565b90508073ffffffffffffffffffffffffffffffffffffffff168473ffffffffffffffffffffffffffffffffffffffff161480610f6457508373ffffffffffffffffffffffffffffffffffffffff16610f4c846104a4565b73ffffffffffffffffffffffffffffffffffffffff16145b80610f755750610f748185610c67565b5b91505092915050565b8273ffffffffffffffffffffffffffffffffffffffff16610f9e826106d2565b73ffffffffffffffffffffffffffffffffffffffff1614610ff4576040517f08c379a0000000000000000000000000000000000000000000000000000000008152600401610feb906125db565b60405180910390fd5b600073ffffffffffffffffffffffffffffffffffffffff168273ffffffffffffffffffffffffffffffffffffffff161415611064576040517f08c379a000000000000000000000000000000000000000000000000000000000815260040161105b9061266d565b60405180910390fd5b61106f83838361154c565b61107a600082610dd9565b6001600360008573ffffffffffffffffffffffffffffffffffffffff1673ffffffffffffffffffffffffffffffffffffffff16815260200190815260200160002060008282546110ca91906126bc565b925050819055506001600360008473ffffffffffffffffffffffffffffffffffffffff1673ffffffffffffffffffffffffffffffffffffffff168152602001908152602001600020600082825461112191906126f0565b92505081905550816002600083815260200190815260200160002060006101000a81548173ffffffffffffffffffffffffffffffffffffffff021916908373ffffffffffffffffffffffffffffffffffffffff160217905550808273ffffffffffffffffffffffffffffffffffffffff168473ffffffffffffffffffffffffffffffffffffffff167fddf252ad1be2c89b69c2b068fc378daa952ba7f163c4a11628f55a4df523b3ef60405160405180910390a4505050565b6001816000016000828254019250508190555050565b600073ffffffffffffffffffffffffffffffffffffffff168273ffffffffffffffffffffffffffffffffffffffff161415611260576040517f08c379a000000000000000000000000000000000000000000000000000000000815260040161125790612792565b60405180910390fd5b61126981610d65565b156112a9576040517f08c379a00000000000000000000000000000000000000000000000000000000081526004016112a0906127fe565b60405180910390fd5b6112b56000838361154c565b6001600360008473ffffffffffffffffffffffffffffffffffffffff1673ffffffffffffffffffffffffffffffffffffffff168152602001908152602001600020600082825461130591906126f0565b92505081905550816002600083815260200190815260200160002060006101000a81548173ffffffffffffffffffffffffffffffffffffffff021916908373ffffffffffffffffffffffffffffffffffffffff160217905550808273ffffffffffffffffffffffffffffffffffffffff16600073ffffffffffffffffffffffffffffffffffffffff167fddf252ad1be2c89b69c2b068fc378daa952ba7f163c4a11628f55a4df523b3ef60405160405180910390a45050565b6113c782610d65565b611406576040517f08c379a00000000000000000000000000000000000000000000000000000000081526004016113fd90612890565b60405180910390fd5b8060066000848152602001908152602001600020908051906020019061142d92919061185c565b505050565b61143d848484610f7e565b61144984848484611551565b611488576040517f08c379a000000000000000000000000000000000000000000000000000000000815260040161147f90612922565b60405180910390fd5b50505050565b606060405180602001604052806000815250905090565b60606114b082610d65565b6114ef576040517f08c379a00000000000000000000000000000000000000000000000000000000081526004016114e6906129b4565b60405180910390fd5b60006114f961148e565b905060008151116115195760405180602001604052806000815250611544565b80611523846116e8565b6040516020016115349291906124b3565b6040516020818303038152906040525b915050919050565b505050565b60006115728473ffffffffffffffffffffffffffffffffffffffff16611849565b156116db578373ffffffffffffffffffffffffffffffffffffffff1663150b7a0261159b610dd1565b8786866040518563ffffffff1660e01b81526004016115bd9493929190612a29565b602060405180830381600087803b1580156115d757600080fd5b505af192505050801561160857506040513d601f19601f820116820180604052508101906116059190612a8a565b60015b61168b573d8060008114611638576040519150601f19603f3d011682016040523d82523d6000602084013e61163d565b606091505b50600081511415611683576040517f08c379a000000000000000000000000000000000000000000000000000000000815260040161167a90612922565b60405180910390fd5b805181602001fd5b63150b7a0260e01b7bffffffffffffffffffffffffffffffffffffffffffffffffffffffff1916817bffffffffffffffffffffffffffffffffffffffffffffffffffffffff1916149150506116e0565b600190505b949350505050565b60606000821415611730576040518060400160405280600181526020017f30000000000000000000000000000000000000000000000000000000000000008152509050611844565b600082905060005b6000821461176257808061174b90612ab7565b915050600a8261175b9190612b2f565b9150611738565b60008167ffffffffffffffff81111561177e5761177d611c68565b5b6040519080825280601f01601f1916602001820160405280156117b05781602001600182028036833780820191505090505b5090505b6000851461183d576001826117c991906126bc565b9150600a856117d89190612b60565b60306117e491906126f0565b60f81b8183815181106117fa576117f9612b91565b5b60200101907effffffffffffffffffffffffffffffffffffffffffffffffffffffffffffff1916908160001a905350600a856118369190612b2f565b94506117b4565b8093505050505b919050565b600080823b905060008111915050919050565b82805461186890611fdb565b90600052602060002090601f01602090048101928261188a57600085556118d1565b82601f106118a357805160ff19168380011785556118d1565b828001600101855582156118d1579182015b828111156118d05782518255916020019190600101906118b5565b5b5090506118de91906118e2565b5090565b5b808211156118fb5760008160009055506001016118e3565b5090565b6000604051905090565b600080fd5b600080fd5b60007fffffffff0000000000000000000000000000000000000000000000000000000082169050919050565b61194881611913565b811461195357600080fd5b50565b6000813590506119658161193f565b92915050565b60006020828403121561198157611980611909565b5b600061198f84828501611956565b91505092915050565b60008115159050919050565b6119ad81611998565b82525050565b60006020820190506119c860008301846119a4565b92915050565b600081519050919050565b600082825260208201905092915050565b60005b83811015611a085780820151818401526020810190506119ed565b83811115611a17576000848401525b50505050565b6000601f19601f8301169050919050565b6000611a39826119ce565b611a4381856119d9565b9350611a538185602086016119ea565b611a5c81611a1d565b840191505092915050565b60006020820190508181036000830152611a818184611a2e565b905092915050565b6000819050919050565b611a9c81611a89565b8114611aa757600080fd5b50565b600081359050611ab981611a93565b92915050565b600060208284031215611ad557611ad4611909565b5b6000611ae384828501611aaa565b91505092915050565b600073ffffffffffffffffffffffffffffffffffffffff82169050919050565b6000611b1782611aec565b9050919050565b611b2781611b0c565b82525050565b6000602082019050611b426000830184611b1e565b92915050565b611b5181611b0c565b8114611b5c57600080fd5b50565b600081359050611b6e81611b48565b92915050565b60008060408385031215611b8b57611b8a611909565b5b6000611b9985828601611b5f565b9250506020611baa85828601611aaa565b9150509250929050565b611bbd81611a89565b82525050565b6000602082019050611bd86000830184611bb4565b92915050565b600080600060608486031215611bf757611bf6611909565b5b6000611c0586828701611b5f565b9350506020611c1686828701611b5f565b9250506040611c2786828701611aaa565b9150509250925092565b600060208284031215611c4757611c46611909565b5b6000611c5584828501611b5f565b91505092915050565b600080fd5b600080fd5b7f4e487b7100000000000000000000000000000000000000000000000000000000600052604160045260246000fd5b611ca082611a1d565b810181811067ffffffffffffffff82111715611cbf57611cbe611c68565b5b80604052505050565b6000611cd26118ff565b9050611cde8282611c97565b919050565b600067ffffffffffffffff821115611cfe57611cfd611c68565b5b611d0782611a1d565b9050602081019050919050565b82818337600083830152505050565b6000611d36611d3184611ce3565b611cc8565b905082815260208101848484011115611d5257611d51611c63565b5b611d5d848285611d14565b509392505050565b600082601f830112611d7a57611d79611c5e565b5b8135611d8a848260208601611d23565b91505092915050565b600060208284031215611da957611da8611909565b5b600082013567ffffffffffffffff811115611dc757611dc661190e565b5b611dd384828501611d65565b91505092915050565b611de581611998565b8114611df057600080fd5b50565b600081359050611e0281611ddc565b92915050565b60008060408385031215611e1f57611e1e611909565b5b6000611e2d85828601611b5f565b9250506020611e3e85828601611df3565b9150509250929050565b600067ffffffffffffffff821115611e6357611e62611c68565b5b611e6c82611a1d565b9050602081019050919050565b6000611e8c611e8784611e48565b611cc8565b905082815260208101848484011115611ea857611ea7611c63565b5b611eb3848285611d14565b509392505050565b600082601f830112611ed057611ecf611c5e565b5b8135611ee0848260208601611e79565b91505092915050565b60008060008060808587031215611f0357611f02611909565b5b6000611f1187828801611b5f565b9450506020611f2287828801611b5f565b9350506040611f3387828801611aaa565b925050606085013567ffffffffffffffff811115611f5457611f5361190e565b5b611f6087828801611ebb565b91505092959194509250565b60008060408385031215611f8357611f82611909565b5b6000611f9185828601611b5f565b9250506020611fa285828601611b5f565b9150509250929050565b7f4e487b7100000000000000000000000000000000000000000000000000000000600052602260045260246000fd5b60006002820490506001821680611ff357607f821691505b6020821081141561200757612006611fac565b5b50919050565b7f4552433732313a20617070726f76656420717565727920666f72206e6f6e657860008201527f697374656e7420746f6b656e0000000000000000000000000000000000000000602082015250565b6000612069602c836119d9565b91506120748261200d565b604082019050919050565b600060208201905081810360008301526120988161205c565b9050919050565b7f4552433732313a20617070726f76616c20746f2063757272656e74206f776e6560008201527f7200000000000000000000000000000000000000000000000000000000000000602082015250565b60006120fb6021836119d9565b91506121068261209f565b604082019050919050565b6000602082019050818103600083015261212a816120ee565b9050919050565b7f4552433732313a20617070726f76652063616c6c6572206973206e6f74206f7760008201527f6e6572206e6f7220617070726f76656420666f7220616c6c0000000000000000602082015250565b600061218d6038836119d9565b915061219882612131565b604082019050919050565b600060208201905081810360008301526121bc81612180565b9050919050565b7f4552433732313a207472616e736665722063616c6c6572206973206e6f74206f60008201527f776e6572206e6f7220617070726f766564000000000000000000000000000000602082015250565b600061221f6031836119d9565b915061222a826121c3565b604082019050919050565b6000602082019050818103600083015261224e81612212565b9050919050565b7f4552433732313a206f776e657220717565727920666f72206e6f6e657869737460008201527f656e7420746f6b656e0000000000000000000000000000000000000000000000602082015250565b60006122b16029836119d9565b91506122bc82612255565b604082019050919050565b600060208201905081810360008301526122e0816122a4565b9050919050565b7f4552433732313a2062616c616e636520717565727920666f7220746865207a6560008201527f726f206164647265737300000000000000000000000000000000000000000000602082015250565b6000612343602a836119d9565b915061234e826122e7565b604082019050919050565b6000602082019050818103600083015261237281612336565b9050919050565b7f4552433732313a20617070726f766520746f2063616c6c657200000000000000600082015250565b60006123af6019836119d9565b91506123ba82612379565b602082019050919050565b600060208201905081810360008301526123de816123a2565b9050919050565b7f45524337323155524953746f726167653a2055524920717565727920666f722060008201527f6e6f6e6578697374656e7420746f6b656e000000000000000000000000000000602082015250565b60006124416031836119d9565b915061244c826123e5565b604082019050919050565b6000602082019050818103600083015261247081612434565b9050919050565b600081905092915050565b600061248d826119ce565b6124978185612477565b93506124a78185602086016119ea565b80840191505092915050565b60006124bf8285612482565b91506124cb8284612482565b91508190509392505050565b7f4552433732313a206f70657261746f7220717565727920666f72206e6f6e657860008201527f697374656e7420746f6b656e0000000000000000000000000000000000000000602082015250565b6000612533602c836119d9565b915061253e826124d7565b604082019050919050565b6000602082019050818103600083015261256281612526565b9050919050565b7f4552433732313a207472616e73666572206f6620746f6b656e2074686174206960008201527f73206e6f74206f776e0000000000000000000000000000000000000000000000602082015250565b60006125c56029836119d9565b91506125d082612569565b604082019050919050565b600060208201905081810360008301526125f4816125b8565b9050919050565b7f4552433732313a207472616e7366657220746f20746865207a65726f2061646460008201527f7265737300000000000000000000000000000000000000000000000000000000602082015250565b60006126576024836119d9565b9150612662826125fb565b604082019050919050565b600060208201905081810360008301526126868161264a565b9050919050565b7f4e487b7100000000000000000000000000000000000000000000000000000000600052601160045260246000fd5b60006126c782611a89565b91506126d283611a89565b9250828210156126e5576126e461268d565b5b828203905092915050565b60006126fb82611a89565b915061270683611a89565b9250827fffffffffffffffffffffffffffffffffffffffffffffffffffffffffffffffff0382111561273b5761273a61268d565b5b828201905092915050565b7f4552433732313a206d696e7420746f20746865207a65726f2061646472657373600082015250565b600061277c6020836119d9565b915061278782612746565b602082019050919050565b600060208201905081810360008301526127ab8161276f565b9050919050565b7f4552433732313a20746f6b656e20616c7265616479206d696e74656400000000600082015250565b60006127e8601c836119d9565b91506127f3826127b2565b602082019050919050565b60006020820190508181036000830152612817816127db565b9050919050565b7f45524337323155524953746f726167653a2055524920736574206f66206e6f6e60008201527f6578697374656e7420746f6b656e000000000000000000000000000000000000602082015250565b600061287a602e836119d9565b91506128858261281e565b604082019050919050565b600060208201905081810360008301526128a98161286d565b9050919050565b7f4552433732313a207472616e7366657220746f206e6f6e20455243373231526560008201527f63656976657220696d706c656d656e7465720000000000000000000000000000602082015250565b600061290c6032836119d9565b9150612917826128b0565b604082019050919050565b6000602082019050818103600083015261293b816128ff565b9050919050565b7f4552433732314d657461646174613a2055524920717565727920666f72206e6f60008201527f6e6578697374656e7420746f6b656e0000000000000000000000000000000000602082015250565b600061299e602f836119d9565b91506129a982612942565b604082019050919050565b600060208201905081810360008301526129cd81612991565b9050919050565b600081519050919050565b600082825260208201905092915050565b60006129fb826129d4565b612a0581856129df565b9350612a158185602086016119ea565b612a1e81611a1d565b840191505092915050565b6000608082019050612a3e6000830187611b1e565b612a4b6020830186611b1e565b612a586040830185611bb4565b8181036060830152612a6a81846129f0565b905095945050505050565b600081519050612a848161193f565b92915050565b600060208284031215612aa057612a9f611909565b5b6000612aae84828501612a75565b91505092915050565b6000612ac282611a89565b91507fffffffffffffffffffffffffffffffffffffffffffffffffffffffffffffffff821415612af557612af461268d565b5b600182019050919050565b7f4e487b7100000000000000000000000000000000000000000000000000000000600052601260045260246000fd5b6000612b3a82611a89565b9150612b4583611a89565b925082612b5557612b54612b00565b5b828204905092915050565b6000612b6b82611a89565b9150612b7683611a89565b925082612b8657612b85612b00565b5b828206905092915050565b7f4e487b7100000000000000000000000000000000000000000000000000000000600052603260045260246000fdfea2646970667358221220b6bf91ac87a416a7e92cded6a88f673e40494b0d8d2104a6b71e7508bb09fc1a64736f6c63430008080033",
  "immutableReferences": {},
  "source": "//SPDX-License-Identifier: MIT\npragma solidity ^0.8.0;\n\nimport \"@openzeppelin/contracts/token/ERC721/ERC721.sol\";\nimport \"@openzeppelin/contracts/token/ERC721/extensions/ERC721URIStorage.sol\";\nimport \"@openzeppelin/contracts/utils/Counters.sol\";\n\ncontract Bag is ERC721URIStorage {\n    using Counters for Counters.Counter;\n    Counters.Counter private _bagIds;\n    address contractAddress;\n\n    constructor(address _houseAddress) ERC721(\"Chip Bag\", \"BAG\") {\n        contractAddress = _houseAddress;\n    }\n\n    function mintBag(string memory _bagURI) public returns (uint256) {\n        _bagIds.increment();\n        uint256 newBagId = _bagIds.current();\n\n        _mint(msg.sender, newBagId);\n        _setTokenURI(newBagId, _bagURI);\n        setApprovalForAll(contractAddress, true);\n\n        return newBagId;\n    }\n\n    function totalSupply() external view returns (uint256) {\n        return _bagIds.current();\n    }\n}\n",
  "sourcePath": "/home/elcoacho/blockchain-workspace/cbj/contracts/Bag.sol",
  "compiler": {
    "name": "solc",
    "version": "0.8.8+commit.dddeac2f.Emscripten.clang"
  },
  "schemaVersion": "3.4.1",
  "updatedAt": "2021-09-29T03:06:29.867Z",
  "networkType": "ethereum",
  "devdoc": {
    "kind": "dev",
    "methods": {
      "approve(address,uint256)": {
        "details": "See {IERC721-approve}."
      },
      "balanceOf(address)": {
        "details": "See {IERC721-balanceOf}."
      },
      "getApproved(uint256)": {
        "details": "See {IERC721-getApproved}."
      },
      "isApprovedForAll(address,address)": {
        "details": "See {IERC721-isApprovedForAll}."
      },
      "name()": {
        "details": "See {IERC721Metadata-name}."
      },
      "ownerOf(uint256)": {
        "details": "See {IERC721-ownerOf}."
      },
      "safeTransferFrom(address,address,uint256)": {
        "details": "See {IERC721-safeTransferFrom}."
      },
      "safeTransferFrom(address,address,uint256,bytes)": {
        "details": "See {IERC721-safeTransferFrom}."
      },
      "setApprovalForAll(address,bool)": {
        "details": "See {IERC721-setApprovalForAll}."
      },
      "supportsInterface(bytes4)": {
        "details": "See {IERC165-supportsInterface}."
      },
      "symbol()": {
        "details": "See {IERC721Metadata-symbol}."
      },
      "tokenURI(uint256)": {
        "details": "See {IERC721Metadata-tokenURI}."
      },
      "transferFrom(address,address,uint256)": {
        "details": "See {IERC721-transferFrom}."
      }
    },
    "version": 1
  },
  "userdoc": {
    "kind": "user",
    "methods": {},
    "version": 1
  }
}