{
  "contractName": "CBJ",
  "abi": [
    {
      "inputs": [
        {
          "internalType": "uint256",
          "name": "_initialSupply",
          "type": "uint256"
        }
      ],
      "stateMutability": "nonpayable",
      "type": "constructor"
    },
    {
      "anonymous": false,
      "inputs": [
        {
          "indexed": true,
          "internalType": "address",
          "name": "owner",
          "type": "address"
        },
        {
          "indexed": true,
          "internalType": "address",
          "name": "spender",
          "type": "address"
        },
        {
          "indexed": false,
          "internalType": "uint256",
          "name": "value",
          "type": "uint256"
        }
      ],
      "name": "Approval",
      "type": "event"
    },
    {
      "anonymous": false,
      "inputs": [
        {
          "indexed": true,
          "internalType": "address",
          "name": "from",
          "type": "address"
        },
        {
          "indexed": true,
          "internalType": "address",
          "name": "to",
          "type": "address"
        },
        {
          "indexed": false,
          "internalType": "uint256",
          "name": "value",
          "type": "uint256"
        }
      ],
      "name": "Transfer",
      "type": "event"
    },
    {
      "inputs": [
        {
          "internalType": "address",
          "name": "owner",
          "type": "address"
        },
        {
          "internalType": "address",
          "name": "spender",
          "type": "address"
        }
      ],
      "name": "allowance",
      "outputs": [
        {
          "internalType": "uint256",
          "name": "",
          "type": "uint256"
        }
      ],
      "stateMutability": "view",
      "type": "function",
      "constant": true
    },
    {
      "inputs": [
        {
          "internalType": "address",
          "name": "spender",
          "type": "address"
        },
        {
          "internalType": "uint256",
          "name": "amount",
          "type": "uint256"
        }
      ],
      "name": "approve",
      "outputs": [
        {
          "internalType": "bool",
          "name": "",
          "type": "bool"
        }
      ],
      "stateMutability": "nonpayable",
      "type": "function"
    },
    {
      "inputs": [
        {
          "internalType": "address",
          "name": "account",
          "type": "address"
        }
      ],
      "name": "balanceOf",
      "outputs": [
        {
          "internalType": "uint256",
          "name": "",
          "type": "uint256"
        }
      ],
      "stateMutability": "view",
      "type": "function",
      "constant": true
    },
    {
      "inputs": [],
      "name": "cbjAddress",
      "outputs": [
        {
          "internalType": "address",
          "name": "",
          "type": "address"
        }
      ],
      "stateMutability": "view",
      "type": "function",
      "constant": true
    },
    {
      "inputs": [],
      "name": "decimals",
      "outputs": [
        {
          "internalType": "uint8",
          "name": "",
          "type": "uint8"
        }
      ],
      "stateMutability": "view",
      "type": "function",
      "constant": true
    },
    {
      "inputs": [
        {
          "internalType": "address",
          "name": "spender",
          "type": "address"
        },
        {
          "internalType": "uint256",
          "name": "subtractedValue",
          "type": "uint256"
        }
      ],
      "name": "decreaseAllowance",
      "outputs": [
        {
          "internalType": "bool",
          "name": "",
          "type": "bool"
        }
      ],
      "stateMutability": "nonpayable",
      "type": "function"
    },
    {
      "inputs": [
        {
          "internalType": "address",
          "name": "spender",
          "type": "address"
        },
        {
          "internalType": "uint256",
          "name": "addedValue",
          "type": "uint256"
        }
      ],
      "name": "increaseAllowance",
      "outputs": [
        {
          "internalType": "bool",
          "name": "",
          "type": "bool"
        }
      ],
      "stateMutability": "nonpayable",
      "type": "function"
    },
    {
      "inputs": [],
      "name": "name",
      "outputs": [
        {
          "internalType": "string",
          "name": "",
          "type": "string"
        }
      ],
      "stateMutability": "view",
      "type": "function",
      "constant": true
    },
    {
      "inputs": [],
      "name": "symbol",
      "outputs": [
        {
          "internalType": "string",
          "name": "",
          "type": "string"
        }
      ],
      "stateMutability": "view",
      "type": "function",
      "constant": true
    },
    {
      "inputs": [],
      "name": "totalSupply",
      "outputs": [
        {
          "internalType": "uint256",
          "name": "",
          "type": "uint256"
        }
      ],
      "stateMutability": "view",
      "type": "function",
      "constant": true
    },
    {
      "inputs": [
        {
          "internalType": "address",
          "name": "recipient",
          "type": "address"
        },
        {
          "internalType": "uint256",
          "name": "amount",
          "type": "uint256"
        }
      ],
      "name": "transfer",
      "outputs": [
        {
          "internalType": "bool",
          "name": "",
          "type": "bool"
        }
      ],
      "stateMutability": "nonpayable",
      "type": "function"
    },
    {
      "inputs": [
        {
          "internalType": "address",
          "name": "sender",
          "type": "address"
        },
        {
          "internalType": "address",
          "name": "recipient",
          "type": "address"
        },
        {
          "internalType": "uint256",
          "name": "amount",
          "type": "uint256"
        }
      ],
      "name": "transferFrom",
      "outputs": [
        {
          "internalType": "bool",
          "name": "",
          "type": "bool"
        }
      ],
      "stateMutability": "nonpayable",
      "type": "function"
    },
    {
      "stateMutability": "payable",
      "type": "receive",
      "payable": true
    },
    {
      "inputs": [
        {
          "internalType": "address",
          "name": "to",
          "type": "address"
        },
        {
          "internalType": "uint256",
          "name": "amount",
          "type": "uint256"
        }
      ],
      "name": "faucet",
      "outputs": [],
      "stateMutability": "nonpayable",
      "type": "function"
    }
  ],
  "bytecode": "0x60806040523480156200001157600080fd5b5060405162001ea938038062001ea98339818101604052810190620000379190620003ae565b6040518060400160405280601081526020017f43727970746f20426c61636b6a61636b000000000000000000000000000000008152506040518060400160405280600381526020017f43424a00000000000000000000000000000000000000000000000000000000008152508160039080519060200190620000bb929190620002e7565b508060049080519060200190620000d4929190620002e7565b5050506200011333620000ec6200015b60201b60201c565b600a620000fa919062000520565b836200010791906200065d565b6200016460201b60201c565b30600560006101000a81548173ffffffffffffffffffffffffffffffffffffffff021916908373ffffffffffffffffffffffffffffffffffffffff16021790555050620007be565b60006012905090565b600073ffffffffffffffffffffffffffffffffffffffff168273ffffffffffffffffffffffffffffffffffffffff161415620001d7576040517f08c379a0000000000000000000000000000000000000000000000000000000008152600401620001ce9062000418565b60405180910390fd5b620001eb60008383620002dd60201b60201c565b8060026000828254620001ff919062000468565b92505081905550806000808473ffffffffffffffffffffffffffffffffffffffff1673ffffffffffffffffffffffffffffffffffffffff168152602001908152602001600020600082825462000256919062000468565b925050819055508173ffffffffffffffffffffffffffffffffffffffff16600073ffffffffffffffffffffffffffffffffffffffff167fddf252ad1be2c89b69c2b068fc378daa952ba7f163c4a11628f55a4df523b3ef83604051620002bd91906200043a565b60405180910390a3620002d960008383620002e260201b60201c565b5050565b505050565b505050565b828054620002f590620006d5565b90600052602060002090601f01602090048101928262000319576000855562000365565b82601f106200033457805160ff191683800117855562000365565b8280016001018555821562000365579182015b828111156200036457825182559160200191906001019062000347565b5b50905062000374919062000378565b5090565b5b808211156200039357600081600090555060010162000379565b5090565b600081519050620003a881620007a4565b92915050565b600060208284031215620003c757620003c662000769565b5b6000620003d78482850162000397565b91505092915050565b6000620003ef601f8362000457565b9150620003fc826200077b565b602082019050919050565b6200041281620006be565b82525050565b600060208201905081810360008301526200043381620003e0565b9050919050565b600060208201905062000451600083018462000407565b92915050565b600082825260208201905092915050565b60006200047582620006be565b91506200048283620006be565b9250827fffffffffffffffffffffffffffffffffffffffffffffffffffffffffffffffff03821115620004ba57620004b96200070b565b5b828201905092915050565b6000808291508390505b60018511156200051757808604811115620004ef57620004ee6200070b565b5b6001851615620004ff5780820291505b80810290506200050f856200076e565b9450620004cf565b94509492505050565b60006200052d82620006be565b91506200053a83620006c8565b9250620005697fffffffffffffffffffffffffffffffffffffffffffffffffffffffffffffffff848462000571565b905092915050565b60008262000583576001905062000656565b8162000593576000905062000656565b8160018114620005ac5760028114620005b757620005ed565b600191505062000656565b60ff841115620005cc57620005cb6200070b565b5b8360020a915084821115620005e657620005e56200070b565b5b5062000656565b5060208310610133831016604e8410600b8410161715620006275782820a9050838111156200062157620006206200070b565b5b62000656565b620006368484846001620004c5565b9250905081840481111562000650576200064f6200070b565b5b81810290505b9392505050565b60006200066a82620006be565b91506200067783620006be565b9250817fffffffffffffffffffffffffffffffffffffffffffffffffffffffffffffffff0483118215151615620006b357620006b26200070b565b5b828202905092915050565b6000819050919050565b600060ff82169050919050565b60006002820490506001821680620006ee57607f821691505b602082108114156200070557620007046200073a565b5b50919050565b7f4e487b7100000000000000000000000000000000000000000000000000000000600052601160045260246000fd5b7f4e487b7100000000000000000000000000000000000000000000000000000000600052602260045260246000fd5b600080fd5b60008160011c9050919050565b7f45524332303a206d696e7420746f20746865207a65726f206164647265737300600082015250565b620007af81620006be565b8114620007bb57600080fd5b50565b6116db80620007ce6000396000f3fe6080604052600436106100c65760003560e01c806370a082311161007f578063a457c2d711610059578063a457c2d71461029b578063a9059cbb146102d8578063c783c23d14610315578063dd62ed3e14610340576100cd565b806370a082311461020a5780637b56c2b21461024757806395d89b4114610270576100cd565b806306fdde03146100d2578063095ea7b3146100fd57806318160ddd1461013a57806323b872dd14610165578063313ce567146101a257806339509351146101cd576100cd565b366100cd57005b600080fd5b3480156100de57600080fd5b506100e761037d565b6040516100f4919061112d565b60405180910390f35b34801561010957600080fd5b50610124600480360381019061011f9190610f2a565b61040f565b6040516101319190611112565b60405180910390f35b34801561014657600080fd5b5061014f61042d565b60405161015c919061124f565b60405180910390f35b34801561017157600080fd5b5061018c60048036038101906101879190610ed7565b610437565b6040516101999190611112565b60405180910390f35b3480156101ae57600080fd5b506101b761052f565b6040516101c4919061126a565b60405180910390f35b3480156101d957600080fd5b506101f460048036038101906101ef9190610f2a565b610538565b6040516102019190611112565b60405180910390f35b34801561021657600080fd5b50610231600480360381019061022c9190610e6a565b6105e4565b60405161023e919061124f565b60405180910390f35b34801561025357600080fd5b5061026e60048036038101906102699190610f2a565b61062c565b005b34801561027c57600080fd5b5061028561063a565b604051610292919061112d565b60405180910390f35b3480156102a757600080fd5b506102c260048036038101906102bd9190610f2a565b6106cc565b6040516102cf9190611112565b60405180910390f35b3480156102e457600080fd5b506102ff60048036038101906102fa9190610f2a565b6107b7565b60405161030c9190611112565b60405180910390f35b34801561032157600080fd5b5061032a6107d5565b60405161033791906110f7565b60405180910390f35b34801561034c57600080fd5b5061036760048036038101906103629190610e97565b6107fb565b604051610374919061124f565b60405180910390f35b60606003805461038c9061137f565b80601f01602080910402602001604051908101604052809291908181526020018280546103b89061137f565b80156104055780601f106103da57610100808354040283529160200191610405565b820191906000526020600020905b8154815290600101906020018083116103e857829003601f168201915b5050505050905090565b600061042361041c610882565b848461088a565b6001905092915050565b6000600254905090565b6000610444848484610a55565b6000600160008673ffffffffffffffffffffffffffffffffffffffff1673ffffffffffffffffffffffffffffffffffffffff168152602001908152602001600020600061048f610882565b73ffffffffffffffffffffffffffffffffffffffff1673ffffffffffffffffffffffffffffffffffffffff1681526020019081526020016000205490508281101561050f576040517f08c379a0000000000000000000000000000000000000000000000000000000008152600401610506906111af565b60405180910390fd5b6105238561051b610882565b85840361088a565b60019150509392505050565b60006012905090565b60006105da610545610882565b848460016000610553610882565b73ffffffffffffffffffffffffffffffffffffffff1673ffffffffffffffffffffffffffffffffffffffff16815260200190815260200160002060008873ffffffffffffffffffffffffffffffffffffffff1673ffffffffffffffffffffffffffffffffffffffff168152602001908152602001600020546105d591906112a1565b61088a565b6001905092915050565b60008060008373ffffffffffffffffffffffffffffffffffffffff1673ffffffffffffffffffffffffffffffffffffffff168152602001908152602001600020549050919050565b6106368282610cd6565b5050565b6060600480546106499061137f565b80601f01602080910402602001604051908101604052809291908181526020018280546106759061137f565b80156106c25780601f10610697576101008083540402835291602001916106c2565b820191906000526020600020905b8154815290600101906020018083116106a557829003601f168201915b5050505050905090565b600080600160006106db610882565b73ffffffffffffffffffffffffffffffffffffffff1673ffffffffffffffffffffffffffffffffffffffff16815260200190815260200160002060008573ffffffffffffffffffffffffffffffffffffffff1673ffffffffffffffffffffffffffffffffffffffff16815260200190815260200160002054905082811015610798576040517f08c379a000000000000000000000000000000000000000000000000000000000815260040161078f9061120f565b60405180910390fd5b6107ac6107a3610882565b8585840361088a565b600191505092915050565b60006107cb6107c4610882565b8484610a55565b6001905092915050565b600560009054906101000a900473ffffffffffffffffffffffffffffffffffffffff1681565b6000600160008473ffffffffffffffffffffffffffffffffffffffff1673ffffffffffffffffffffffffffffffffffffffff16815260200190815260200160002060008373ffffffffffffffffffffffffffffffffffffffff1673ffffffffffffffffffffffffffffffffffffffff16815260200190815260200160002054905092915050565b600033905090565b600073ffffffffffffffffffffffffffffffffffffffff168373ffffffffffffffffffffffffffffffffffffffff1614156108fa576040517f08c379a00000000000000000000000000000000000000000000000000000000081526004016108f1906111ef565b60405180910390fd5b600073ffffffffffffffffffffffffffffffffffffffff168273ffffffffffffffffffffffffffffffffffffffff16141561096a576040517f08c379a00000000000000000000000000000000000000000000000000000000081526004016109619061116f565b60405180910390fd5b80600160008573ffffffffffffffffffffffffffffffffffffffff1673ffffffffffffffffffffffffffffffffffffffff16815260200190815260200160002060008473ffffffffffffffffffffffffffffffffffffffff1673ffffffffffffffffffffffffffffffffffffffff168152602001908152602001600020819055508173ffffffffffffffffffffffffffffffffffffffff168373ffffffffffffffffffffffffffffffffffffffff167f8c5be1e5ebec7d5bd14f71427d1e84f3dd0314c0f7b2291e5b200ac8c7c3b92583604051610a48919061124f565b60405180910390a3505050565b600073ffffffffffffffffffffffffffffffffffffffff168373ffffffffffffffffffffffffffffffffffffffff161415610ac5576040517f08c379a0000000000000000000000000000000000000000000000000000000008152600401610abc906111cf565b60405180910390fd5b600073ffffffffffffffffffffffffffffffffffffffff168273ffffffffffffffffffffffffffffffffffffffff161415610b35576040517f08c379a0000000000000000000000000000000000000000000000000000000008152600401610b2c9061114f565b60405180910390fd5b610b40838383610e36565b60008060008573ffffffffffffffffffffffffffffffffffffffff1673ffffffffffffffffffffffffffffffffffffffff16815260200190815260200160002054905081811015610bc6576040517f08c379a0000000000000000000000000000000000000000000000000000000008152600401610bbd9061118f565b60405180910390fd5b8181036000808673ffffffffffffffffffffffffffffffffffffffff1673ffffffffffffffffffffffffffffffffffffffff16815260200190815260200160002081905550816000808573ffffffffffffffffffffffffffffffffffffffff1673ffffffffffffffffffffffffffffffffffffffff1681526020019081526020016000206000828254610c5991906112a1565b925050819055508273ffffffffffffffffffffffffffffffffffffffff168473ffffffffffffffffffffffffffffffffffffffff167fddf252ad1be2c89b69c2b068fc378daa952ba7f163c4a11628f55a4df523b3ef84604051610cbd919061124f565b60405180910390a3610cd0848484610e3b565b50505050565b600073ffffffffffffffffffffffffffffffffffffffff168273ffffffffffffffffffffffffffffffffffffffff161415610d46576040517f08c379a0000000000000000000000000000000000000000000000000000000008152600401610d3d9061122f565b60405180910390fd5b610d5260008383610e36565b8060026000828254610d6491906112a1565b92505081905550806000808473ffffffffffffffffffffffffffffffffffffffff1673ffffffffffffffffffffffffffffffffffffffff1681526020019081526020016000206000828254610db991906112a1565b925050819055508173ffffffffffffffffffffffffffffffffffffffff16600073ffffffffffffffffffffffffffffffffffffffff167fddf252ad1be2c89b69c2b068fc378daa952ba7f163c4a11628f55a4df523b3ef83604051610e1e919061124f565b60405180910390a3610e3260008383610e3b565b5050565b505050565b505050565b600081359050610e4f81611677565b92915050565b600081359050610e648161168e565b92915050565b600060208284031215610e8057610e7f61140f565b5b6000610e8e84828501610e40565b91505092915050565b60008060408385031215610eae57610ead61140f565b5b6000610ebc85828601610e40565b9250506020610ecd85828601610e40565b9150509250929050565b600080600060608486031215610ef057610eef61140f565b5b6000610efe86828701610e40565b9350506020610f0f86828701610e40565b9250506040610f2086828701610e55565b9150509250925092565b60008060408385031215610f4157610f4061140f565b5b6000610f4f85828601610e40565b9250506020610f6085828601610e55565b9150509250929050565b610f73816112f7565b82525050565b610f8281611309565b82525050565b6000610f9382611285565b610f9d8185611290565b9350610fad81856020860161134c565b610fb681611414565b840191505092915050565b6000610fce602383611290565b9150610fd982611425565b604082019050919050565b6000610ff1602283611290565b9150610ffc82611474565b604082019050919050565b6000611014602683611290565b915061101f826114c3565b604082019050919050565b6000611037602883611290565b915061104282611512565b604082019050919050565b600061105a602583611290565b915061106582611561565b604082019050919050565b600061107d602483611290565b9150611088826115b0565b604082019050919050565b60006110a0602583611290565b91506110ab826115ff565b604082019050919050565b60006110c3601f83611290565b91506110ce8261164e565b602082019050919050565b6110e281611335565b82525050565b6110f18161133f565b82525050565b600060208201905061110c6000830184610f6a565b92915050565b60006020820190506111276000830184610f79565b92915050565b600060208201905081810360008301526111478184610f88565b905092915050565b6000602082019050818103600083015261116881610fc1565b9050919050565b6000602082019050818103600083015261118881610fe4565b9050919050565b600060208201905081810360008301526111a881611007565b9050919050565b600060208201905081810360008301526111c88161102a565b9050919050565b600060208201905081810360008301526111e88161104d565b9050919050565b6000602082019050818103600083015261120881611070565b9050919050565b6000602082019050818103600083015261122881611093565b9050919050565b60006020820190508181036000830152611248816110b6565b9050919050565b600060208201905061126460008301846110d9565b92915050565b600060208201905061127f60008301846110e8565b92915050565b600081519050919050565b600082825260208201905092915050565b60006112ac82611335565b91506112b783611335565b9250827fffffffffffffffffffffffffffffffffffffffffffffffffffffffffffffffff038211156112ec576112eb6113b1565b5b828201905092915050565b600061130282611315565b9050919050565b60008115159050919050565b600073ffffffffffffffffffffffffffffffffffffffff82169050919050565b6000819050919050565b600060ff82169050919050565b60005b8381101561136a57808201518184015260208101905061134f565b83811115611379576000848401525b50505050565b6000600282049050600182168061139757607f821691505b602082108114156113ab576113aa6113e0565b5b50919050565b7f4e487b7100000000000000000000000000000000000000000000000000000000600052601160045260246000fd5b7f4e487b7100000000000000000000000000000000000000000000000000000000600052602260045260246000fd5b600080fd5b6000601f19601f8301169050919050565b7f45524332303a207472616e7366657220746f20746865207a65726f206164647260008201527f6573730000000000000000000000000000000000000000000000000000000000602082015250565b7f45524332303a20617070726f766520746f20746865207a65726f20616464726560008201527f7373000000000000000000000000000000000000000000000000000000000000602082015250565b7f45524332303a207472616e7366657220616d6f756e742065786365656473206260008201527f616c616e63650000000000000000000000000000000000000000000000000000602082015250565b7f45524332303a207472616e7366657220616d6f756e742065786365656473206160008201527f6c6c6f77616e6365000000000000000000000000000000000000000000000000602082015250565b7f45524332303a207472616e736665722066726f6d20746865207a65726f20616460008201527f6472657373000000000000000000000000000000000000000000000000000000602082015250565b7f45524332303a20617070726f76652066726f6d20746865207a65726f2061646460008201527f7265737300000000000000000000000000000000000000000000000000000000602082015250565b7f45524332303a2064656372656173656420616c6c6f77616e63652062656c6f7760008201527f207a65726f000000000000000000000000000000000000000000000000000000602082015250565b7f45524332303a206d696e7420746f20746865207a65726f206164647265737300600082015250565b611680816112f7565b811461168b57600080fd5b50565b61169781611335565b81146116a257600080fd5b5056fea26469706673582212208611ee0227f5b44a7b1251c6b7fe3d3336bf042f460f8baa9a879a08028b42dc64736f6c63430008070033",
  "immutableReferences": {},
  "source": "// SPDX-License-Identifier: MIT\npragma solidity ^0.8.0;\n\nimport \"@openzeppelin/contracts/token/ERC20/ERC20.sol\";\n\ncontract CBJ is ERC20 {\n    address public cbjAddress;\n\n    constructor(uint256 _initialSupply) ERC20(\"Crypto Blackjack\", \"CBJ\") {\n        _mint(msg.sender, _initialSupply * (10**decimals()));\n        cbjAddress = address(this);\n    }\n\n    function faucet(address to, uint256 amount) external {\n        _mint(to, amount);\n    }\n\n    receive() external payable {}\n}\n",
  "sourcePath": "/home/elcoacho/blockchain-workspace/cbj/contracts/CBJ.sol",
  "compiler": {
    "name": "solc",
    "version": "0.8.7+commit.e28d00a7.Emscripten.clang"
  },
  "schemaVersion": "3.4.1",
  "updatedAt": "2021-09-29T03:06:29.853Z",
  "networkType": "ethereum",
  "devdoc": {
    "kind": "dev",
    "methods": {
      "allowance(address,address)": {
        "details": "See {IERC20-allowance}."
      },
      "approve(address,uint256)": {
        "details": "See {IERC20-approve}. Requirements: - `spender` cannot be the zero address."
      },
      "balanceOf(address)": {
        "details": "See {IERC20-balanceOf}."
      },
      "decimals()": {
        "details": "Returns the number of decimals used to get its user representation. For example, if `decimals` equals `2`, a balance of `505` tokens should be displayed to a user as `5.05` (`505 / 10 ** 2`). Tokens usually opt for a value of 18, imitating the relationship between Ether and Wei. This is the value {ERC20} uses, unless this function is overridden; NOTE: This information is only used for _display_ purposes: it in no way affects any of the arithmetic of the contract, including {IERC20-balanceOf} and {IERC20-transfer}."
      },
      "decreaseAllowance(address,uint256)": {
        "details": "Atomically decreases the allowance granted to `spender` by the caller. This is an alternative to {approve} that can be used as a mitigation for problems described in {IERC20-approve}. Emits an {Approval} event indicating the updated allowance. Requirements: - `spender` cannot be the zero address. - `spender` must have allowance for the caller of at least `subtractedValue`."
      },
      "increaseAllowance(address,uint256)": {
        "details": "Atomically increases the allowance granted to `spender` by the caller. This is an alternative to {approve} that can be used as a mitigation for problems described in {IERC20-approve}. Emits an {Approval} event indicating the updated allowance. Requirements: - `spender` cannot be the zero address."
      },
      "name()": {
        "details": "Returns the name of the token."
      },
      "symbol()": {
        "details": "Returns the symbol of the token, usually a shorter version of the name."
      },
      "totalSupply()": {
        "details": "See {IERC20-totalSupply}."
      },
      "transfer(address,uint256)": {
        "details": "See {IERC20-transfer}. Requirements: - `recipient` cannot be the zero address. - the caller must have a balance of at least `amount`."
      },
      "transferFrom(address,address,uint256)": {
        "details": "See {IERC20-transferFrom}. Emits an {Approval} event indicating the updated allowance. This is not required by the EIP. See the note at the beginning of {ERC20}. Requirements: - `sender` and `recipient` cannot be the zero address. - `sender` must have a balance of at least `amount`. - the caller must have allowance for ``sender``'s tokens of at least `amount`."
      }
    },
    "version": 1
  },
  "userdoc": {
    "kind": "user",
    "methods": {},
    "version": 1
  }
}