{
  "contractName": "House",
  "abi": [
    {
      "inputs": [
        {
          "internalType": "address",
          "name": "_cbjAddress",
          "type": "address"
        }
      ],
      "stateMutability": "nonpayable",
      "type": "constructor"
    },
    {
      "anonymous": false,
      "inputs": [
        {
          "indexed": true,
          "internalType": "uint256",
          "name": "itemId",
          "type": "uint256"
        },
        {
          "indexed": true,
          "internalType": "address",
          "name": "bagContract",
          "type": "address"
        },
        {
          "indexed": false,
          "internalType": "uint256",
          "name": "bagId",
          "type": "uint256"
        },
        {
          "indexed": true,
          "internalType": "uint256",
          "name": "chips",
          "type": "uint256"
        },
        {
          "indexed": false,
          "internalType": "address",
          "name": "owner",
          "type": "address"
        }
      ],
      "name": "BagCreated",
      "type": "event"
    },
    {
      "anonymous": false,
      "inputs": [
        {
          "indexed": true,
          "internalType": "uint256",
          "name": "chips",
          "type": "uint256"
        },
        {
          "indexed": false,
          "internalType": "uint256",
          "name": "bagId",
          "type": "uint256"
        },
        {
          "indexed": false,
          "internalType": "address",
          "name": "owner",
          "type": "address"
        }
      ],
      "name": "ChipsBought",
      "type": "event"
    },
    {
      "anonymous": false,
      "inputs": [
        {
          "indexed": false,
          "internalType": "uint256",
          "name": "chips",
          "type": "uint256"
        },
        {
          "indexed": false,
          "internalType": "uint256",
          "name": "bagId",
          "type": "uint256"
        },
        {
          "indexed": false,
          "internalType": "address",
          "name": "owner",
          "type": "address"
        }
      ],
      "name": "ChipsCashedIn",
      "type": "event"
    },
    {
      "inputs": [],
      "name": "getBagPrice",
      "outputs": [
        {
          "internalType": "uint256",
          "name": "",
          "type": "uint256"
        }
      ],
      "stateMutability": "view",
      "type": "function",
      "constant": true
    },
    {
      "inputs": [],
      "name": "getChipPrice",
      "outputs": [
        {
          "internalType": "uint256",
          "name": "",
          "type": "uint256"
        }
      ],
      "stateMutability": "view",
      "type": "function",
      "constant": true
    },
    {
      "inputs": [],
      "name": "totalSupply",
      "outputs": [
        {
          "internalType": "uint256",
          "name": "",
          "type": "uint256"
        }
      ],
      "stateMutability": "view",
      "type": "function",
      "constant": true
    },
    {
      "inputs": [
        {
          "internalType": "address",
          "name": "_bagContract",
          "type": "address"
        },
        {
          "internalType": "uint256",
          "name": "_bagId",
          "type": "uint256"
        },
        {
          "internalType": "uint256",
          "name": "_chips",
          "type": "uint256"
        }
      ],
      "name": "createBag",
      "outputs": [],
      "stateMutability": "payable",
      "type": "function",
      "payable": true
    },
    {
      "inputs": [],
      "name": "getChipBalance",
      "outputs": [
        {
          "internalType": "uint256",
          "name": "",
          "type": "uint256"
        }
      ],
      "stateMutability": "view",
      "type": "function",
      "constant": true
    },
    {
      "inputs": [
        {
          "internalType": "uint256",
          "name": "_amount",
          "type": "uint256"
        }
      ],
      "name": "buyChips",
      "outputs": [],
      "stateMutability": "payable",
      "type": "function",
      "payable": true
    },
    {
      "inputs": [
        {
          "internalType": "uint256",
          "name": "_amount",
          "type": "uint256"
        }
      ],
      "name": "cashIn",
      "outputs": [],
      "stateMutability": "nonpayable",
      "type": "function"
    }
  ],
  "bytecode": "0x60806040526658d15e17628000600255655af3107a40006003553480156200002657600080fd5b50604051620015133803806200151383398181016040528101906200004c9190620000f4565b600160008190555033600460006101000a81548173ffffffffffffffffffffffffffffffffffffffff021916908373ffffffffffffffffffffffffffffffffffffffff16021790555080600560006101000a81548173ffffffffffffffffffffffffffffffffffffffff021916908373ffffffffffffffffffffffffffffffffffffffff1602179055505062000179565b600081519050620000ee816200015f565b92915050565b6000602082840312156200010d576200010c6200015a565b5b60006200011d84828501620000dd565b91505092915050565b600062000133826200013a565b9050919050565b600073ffffffffffffffffffffffffffffffffffffffff82169050919050565b600080fd5b6200016a8162000126565b81146200017657600080fd5b50565b61138a80620001896000396000f3fe6080604052600436106100705760003560e01c80637d1b8be51161004e5780637d1b8be5146100e75780639643245f14610112578063a140c9a01461013d578063c32966731461015957610070565b806318160ddd146100755780633a62324a146100a05780634320c7d0146100bc575b600080fd5b34801561008157600080fd5b5061008a610182565b604051610097919061100a565b60405180910390f35b6100ba60048036038101906100b59190610d90565b610193565b005b3480156100c857600080fd5b506100d161080b565b6040516100de919061100a565b60405180910390f35b3480156100f357600080fd5b506100fc610815565b604051610109919061100a565b60405180910390f35b34801561011e57600080fd5b5061012761085f565b604051610134919061100a565b60405180910390f35b61015760048036038101906101529190610e10565b610869565b005b34801561016557600080fd5b50610180600480360381019061017b9190610e10565b610aba565b005b600061018e6001610d2d565b905090565b600260005414156101d9576040517f08c379a00000000000000000000000000000000000000000000000000000000081526004016101d090610fea565b60405180910390fd5b60026000819055508060008114156104ea57600254341461022f576040517f08c379a000000000000000000000000000000000000000000000000000000000815260040161022690610fca565b60405180910390fd5b600073ffffffffffffffffffffffffffffffffffffffff16600660003373ffffffffffffffffffffffffffffffffffffffff1673ffffffffffffffffffffffffffffffffffffffff16815260200190815260200160002060040160009054906101000a900473ffffffffffffffffffffffffffffffffffffffff1673ffffffffffffffffffffffffffffffffffffffff16146102ca57600080fd5b6102d46001610d3b565b60006102e06001610d2d565b90508473ffffffffffffffffffffffffffffffffffffffff166323b872dd3033876040518463ffffffff1660e01b815260040161031f93929190610f0a565b600060405180830381600087803b15801561033957600080fd5b505af115801561034d573d6000803e3d6000fd5b505050506040518060a001604052808281526020018673ffffffffffffffffffffffffffffffffffffffff1681526020018581526020018481526020013373ffffffffffffffffffffffffffffffffffffffff16815250600660003373ffffffffffffffffffffffffffffffffffffffff1673ffffffffffffffffffffffffffffffffffffffff1681526020019081526020016000206000820151816000015560208201518160010160006101000a81548173ffffffffffffffffffffffffffffffffffffffff021916908373ffffffffffffffffffffffffffffffffffffffff160217905550604082015181600201556060820151816003015560808201518160040160006101000a81548173ffffffffffffffffffffffffffffffffffffffff021916908373ffffffffffffffffffffffffffffffffffffffff160217905550905050828573ffffffffffffffffffffffffffffffffffffffff16827ff74aebd913f692ac4276bf6285984888cd066b4eb783a0b60fb25fcbba04ccd087336040516104dc929190611025565b60405180910390a4506107fd565b600354816104f891906110ec565b6002546105059190611096565b3414610546576040517f08c379a000000000000000000000000000000000000000000000000000000000815260040161053d90610f6a565b60405180910390fd5b600073ffffffffffffffffffffffffffffffffffffffff16600660003373ffffffffffffffffffffffffffffffffffffffff1673ffffffffffffffffffffffffffffffffffffffff16815260200190815260200160002060040160009054906101000a900473ffffffffffffffffffffffffffffffffffffffff1673ffffffffffffffffffffffffffffffffffffffff16146105e157600080fd5b6105eb6001610d3b565b60006105f76001610d2d565b90508473ffffffffffffffffffffffffffffffffffffffff166323b872dd3033876040518463ffffffff1660e01b815260040161063693929190610f0a565b600060405180830381600087803b15801561065057600080fd5b505af1158015610664573d6000803e3d6000fd5b505050506040518060a001604052808281526020018673ffffffffffffffffffffffffffffffffffffffff1681526020018581526020018481526020013373ffffffffffffffffffffffffffffffffffffffff16815250600660003373ffffffffffffffffffffffffffffffffffffffff1673ffffffffffffffffffffffffffffffffffffffff1681526020019081526020016000206000820151816000015560208201518160010160006101000a81548173ffffffffffffffffffffffffffffffffffffffff021916908373ffffffffffffffffffffffffffffffffffffffff160217905550604082015181600201556060820151816003015560808201518160040160006101000a81548173ffffffffffffffffffffffffffffffffffffffff021916908373ffffffffffffffffffffffffffffffffffffffff160217905550905050828573ffffffffffffffffffffffffffffffffffffffff16827ff74aebd913f692ac4276bf6285984888cd066b4eb783a0b60fb25fcbba04ccd087336040516107f3929190611025565b60405180910390a4505b506001600081905550505050565b6000600354905090565b6000600660003373ffffffffffffffffffffffffffffffffffffffff1673ffffffffffffffffffffffffffffffffffffffff16815260200190815260200160002060030154905090565b6000600254905090565b600260005414156108af576040517f08c379a00000000000000000000000000000000000000000000000000000000081526004016108a690610fea565b60405180910390fd5b6002600081905550806003546108c591906110ec565b3414610906576040517f08c379a00000000000000000000000000000000000000000000000000000000081526004016108fd90610faa565b60405180910390fd5b600560009054906101000a900473ffffffffffffffffffffffffffffffffffffffff1673ffffffffffffffffffffffffffffffffffffffff166323b872dd33600560009054906101000a900473ffffffffffffffffffffffffffffffffffffffff16346040518463ffffffff1660e01b815260040161098793929190610f0a565b602060405180830381600087803b1580156109a157600080fd5b505af11580156109b5573d6000803e3d6000fd5b505050506040513d601f19601f820116820180604052508101906109d99190610de3565b5080600660003373ffffffffffffffffffffffffffffffffffffffff1673ffffffffffffffffffffffffffffffffffffffff1681526020019081526020016000206003016000828254610a2c9190611096565b92505081905550807fe47f0862fe3ff8a9791188a52cdd4da991a884e6fa752535b109ad268b7edc26600660003373ffffffffffffffffffffffffffffffffffffffff1673ffffffffffffffffffffffffffffffffffffffff1681526020019081526020016000206002015433604051610aa7929190611025565b60405180910390a2600160008190555050565b60026000541415610b00576040517f08c379a0000000000000000000000000000000000000000000000000000000008152600401610af790610fea565b60405180910390fd5b60026000819055508080600660003373ffffffffffffffffffffffffffffffffffffffff1673ffffffffffffffffffffffffffffffffffffffff168152602001908152602001600020600301541015610b8e576040517f08c379a0000000000000000000000000000000000000000000000000000000008152600401610b8590610f8a565b60405180910390fd5b600560009054906101000a900473ffffffffffffffffffffffffffffffffffffffff1673ffffffffffffffffffffffffffffffffffffffff1663a9059cbb3360035485610bdb91906110ec565b6040518363ffffffff1660e01b8152600401610bf8929190610f41565b602060405180830381600087803b158015610c1257600080fd5b505af1158015610c26573d6000803e3d6000fd5b505050506040513d601f19601f82011682018060405250810190610c4a9190610de3565b5081600660003373ffffffffffffffffffffffffffffffffffffffff1673ffffffffffffffffffffffffffffffffffffffff1681526020019081526020016000206003016000828254610c9d9190611146565b925050819055507f2f9a3348a01c591666305a926bd24cbb281f4e61cbea9b2f6a4a8f295294e6a282600660003373ffffffffffffffffffffffffffffffffffffffff1673ffffffffffffffffffffffffffffffffffffffff1681526020019081526020016000206002015433604051610d199392919061104e565b60405180910390a150600160008190555050565b600081600001549050919050565b6001816000016000828254019250508190555050565b600081359050610d608161130f565b92915050565b600081519050610d7581611326565b92915050565b600081359050610d8a8161133d565b92915050565b600080600060608486031215610da957610da86111f1565b5b6000610db786828701610d51565b9350506020610dc886828701610d7b565b9250506040610dd986828701610d7b565b9150509250925092565b600060208284031215610df957610df86111f1565b5b6000610e0784828501610d66565b91505092915050565b600060208284031215610e2657610e256111f1565b5b6000610e3484828501610d7b565b91505092915050565b610e468161117a565b82525050565b6000610e59603483611085565b9150610e64826111f6565b604082019050919050565b6000610e7c601683611085565b9150610e8782611245565b602082019050919050565b6000610e9f601f83611085565b9150610eaa8261126e565b602082019050919050565b6000610ec2602383611085565b9150610ecd82611297565b604082019050919050565b6000610ee5601f83611085565b9150610ef0826112e6565b602082019050919050565b610f04816111b8565b82525050565b6000606082019050610f1f6000830186610e3d565b610f2c6020830185610e3d565b610f396040830184610efb565b949350505050565b6000604082019050610f566000830185610e3d565b610f636020830184610efb565b9392505050565b60006020820190508181036000830152610f8381610e4c565b9050919050565b60006020820190508181036000830152610fa381610e6f565b9050919050565b60006020820190508181036000830152610fc381610e92565b9050919050565b60006020820190508181036000830152610fe381610eb5565b9050919050565b6000602082019050818103600083015261100381610ed8565b9050919050565b600060208201905061101f6000830184610efb565b92915050565b600060408201905061103a6000830185610efb565b6110476020830184610e3d565b9392505050565b60006060820190506110636000830186610efb565b6110706020830185610efb565b61107d6040830184610e3d565b949350505050565b600082825260208201905092915050565b60006110a1826111b8565b91506110ac836111b8565b9250827fffffffffffffffffffffffffffffffffffffffffffffffffffffffffffffffff038211156110e1576110e06111c2565b5b828201905092915050565b60006110f7826111b8565b9150611102836111b8565b9250817fffffffffffffffffffffffffffffffffffffffffffffffffffffffffffffffff048311821515161561113b5761113a6111c2565b5b828202905092915050565b6000611151826111b8565b915061115c836111b8565b92508282101561116f5761116e6111c2565b5b828203905092915050565b600061118582611198565b9050919050565b60008115159050919050565b600073ffffffffffffffffffffffffffffffffffffffff82169050919050565b6000819050919050565b7f4e487b7100000000000000000000000000000000000000000000000000000000600052601160045260246000fd5b600080fd5b7f5072696365206d75737420657175616c2062616720707572636861736520707260008201527f696365202b2076616c7565206f66206368697073000000000000000000000000602082015250565b7f4d757374206861766520656e6f75676820636869707300000000000000000000600082015250565b7f5072696365206d75737420657175616c2076616c7565206f6620636869707300600082015250565b7f5072696365206d75737420657175616c2062616720707572636861736520707260008201527f6963650000000000000000000000000000000000000000000000000000000000602082015250565b7f5265656e7472616e637947756172643a207265656e7472616e742063616c6c00600082015250565b6113188161117a565b811461132357600080fd5b50565b61132f8161118c565b811461133a57600080fd5b50565b611346816111b8565b811461135157600080fd5b5056fea2646970667358221220d2380f30939451b55c8650acb8b5ad0bb9d6fef5dcfd29b05450a579975b91c664736f6c63430008070033",
  "immutableReferences": {},
  "source": "// SPDX-License-Identifier: MIT\npragma solidity ^0.8.0;\n\nimport \"@openzeppelin/contracts/utils/Counters.sol\";\nimport \"@openzeppelin/contracts/security/ReentrancyGuard.sol\";\nimport \"@openzeppelin/contracts/token/ERC20/ERC20.sol\";\nimport \"@openzeppelin/contracts/token/ERC721/ERC721.sol\";\n\ncontract House is ReentrancyGuard {\n    using Counters for Counters.Counter;\n    Counters.Counter private _itemIds;\n    uint256 bagPrice = 0.025 ether;\n    uint256 chipPrice = 0.0001 ether;\n\n    address payable owner;\n    address cbjAddress;\n\n    constructor(address _cbjAddress) {\n        owner = payable(msg.sender);\n        cbjAddress = _cbjAddress;\n    }\n\n    struct Bag {\n        uint256 itemId;\n        address bagContract;\n        uint256 bagId;\n        uint256 chips;\n        address payable owner;\n    }\n\n    mapping(address => Bag) private addressToBag;\n\n    event BagCreated(\n        uint256 indexed itemId,\n        address indexed bagContract,\n        uint256 bagId,\n        uint256 indexed chips,\n        address owner\n    );\n\n    event ChipsBought(uint256 indexed chips, uint256 bagId, address owner);\n    event ChipsCashedIn(uint256 chips, uint256 bagId, address owner);\n\n    function getBagPrice() public view returns (uint256) {\n        return bagPrice;\n    }\n\n    function getChipPrice() public view returns (uint256) {\n        return chipPrice;\n    }\n\n    function totalSupply() external view returns (uint256) {\n        return _itemIds.current();\n    }\n\n    modifier valueEqualToBagPriceAndChips(uint256 _chips) {\n        if (_chips == 0) {\n            require(\n                msg.value == bagPrice,\n                \"Price must equal bag purchase price\"\n            );\n            _;\n        } else {\n            require(\n                msg.value == bagPrice + _chips * chipPrice,\n                \"Price must equal bag purchase price + value of chips\"\n            );\n            _;\n        }\n    }\n\n    modifier onlyOneBag() {\n        require(addressToBag[msg.sender].owner == address(0));\n        _;\n    }\n\n    function createBag(\n        address _bagContract,\n        uint256 _bagId,\n        uint256 _chips\n    )\n        public\n        payable\n        nonReentrant\n        valueEqualToBagPriceAndChips(_chips)\n        onlyOneBag\n    {\n        _itemIds.increment();\n        uint256 itemId = _itemIds.current();\n\n        IERC721(_bagContract).transferFrom(address(this), msg.sender, _bagId);\n\n        addressToBag[msg.sender] = Bag(\n            itemId,\n            _bagContract,\n            _bagId,\n            _chips,\n            payable(msg.sender)\n        );\n\n        emit BagCreated(itemId, _bagContract, _bagId, _chips, msg.sender);\n    }\n\n    function getChipBalance() external view returns (uint256) {\n        return addressToBag[msg.sender].chips;\n    }\n\n    function buyChips(uint256 _amount) public payable nonReentrant {\n        require(\n            msg.value == chipPrice * _amount,\n            \"Price must equal value of chips\"\n        );\n\n        IERC20(cbjAddress).transferFrom(msg.sender, cbjAddress, msg.value);\n        addressToBag[msg.sender].chips += _amount;\n\n        emit ChipsBought(_amount, addressToBag[msg.sender].bagId, msg.sender);\n    }\n\n    modifier enoughChips(uint256 _amount) {\n        require(\n            addressToBag[msg.sender].chips >= _amount,\n            \"Must have enough chips\"\n        );\n        _;\n    }\n\n    function cashIn(uint256 _amount) public nonReentrant enoughChips(_amount) {\n        IERC20(cbjAddress).transfer(msg.sender, (_amount * chipPrice));\n        addressToBag[msg.sender].chips -= _amount;\n\n        emit ChipsCashedIn(_amount, addressToBag[msg.sender].bagId, msg.sender);\n    }\n}\n",
  "sourcePath": "/home/elcoacho/blockchain-workspace/cbj/contracts/House.sol",
  "compiler": {
    "name": "solc",
    "version": "0.8.7+commit.e28d00a7.Emscripten.clang"
  },
  "schemaVersion": "3.4.1",
  "updatedAt": "2021-09-24T00:42:39.900Z",
  "networkType": "ethereum",
  "devdoc": {
    "kind": "dev",
    "methods": {},
    "version": 1
  },
  "userdoc": {
    "kind": "user",
    "methods": {},
    "version": 1
  }
}