{
  "contractName": "House",
  "abi": [
    {
      "inputs": [
        {
          "internalType": "address",
          "name": "_cbjAddress",
          "type": "address"
        }
      ],
      "stateMutability": "nonpayable",
      "type": "constructor"
    },
    {
      "anonymous": false,
      "inputs": [
        {
          "indexed": true,
          "internalType": "uint256",
          "name": "itemId",
          "type": "uint256"
        },
        {
          "indexed": true,
          "internalType": "address",
          "name": "bagContract",
          "type": "address"
        },
        {
          "indexed": false,
          "internalType": "uint256",
          "name": "bagId",
          "type": "uint256"
        },
        {
          "indexed": false,
          "internalType": "address",
          "name": "owner",
          "type": "address"
        }
      ],
      "name": "BagCreated",
      "type": "event"
    },
    {
      "anonymous": false,
      "inputs": [
        {
          "indexed": true,
          "internalType": "uint256",
          "name": "chips",
          "type": "uint256"
        },
        {
          "indexed": false,
          "internalType": "uint256",
          "name": "bagId",
          "type": "uint256"
        },
        {
          "indexed": false,
          "internalType": "address",
          "name": "owner",
          "type": "address"
        }
      ],
      "name": "ChipsBought",
      "type": "event"
    },
    {
      "anonymous": false,
      "inputs": [
        {
          "indexed": false,
          "internalType": "uint256",
          "name": "chips",
          "type": "uint256"
        },
        {
          "indexed": false,
          "internalType": "uint256",
          "name": "bagId",
          "type": "uint256"
        },
        {
          "indexed": false,
          "internalType": "address",
          "name": "owner",
          "type": "address"
        }
      ],
      "name": "ChipsCashedIn",
      "type": "event"
    },
    {
      "inputs": [],
      "name": "getBagPrice",
      "outputs": [
        {
          "internalType": "uint256",
          "name": "",
          "type": "uint256"
        }
      ],
      "stateMutability": "view",
      "type": "function",
      "constant": true
    },
    {
      "inputs": [],
      "name": "getChipPrice",
      "outputs": [
        {
          "internalType": "uint256",
          "name": "",
          "type": "uint256"
        }
      ],
      "stateMutability": "view",
      "type": "function",
      "constant": true
    },
    {
      "inputs": [],
      "name": "totalSupply",
      "outputs": [
        {
          "internalType": "uint256",
          "name": "",
          "type": "uint256"
        }
      ],
      "stateMutability": "view",
      "type": "function",
      "constant": true
    },
    {
      "inputs": [],
      "name": "bagExists",
      "outputs": [
        {
          "internalType": "bool",
          "name": "",
          "type": "bool"
        }
      ],
      "stateMutability": "view",
      "type": "function",
      "constant": true
    },
    {
      "inputs": [],
      "name": "getBag",
      "outputs": [
        {
          "components": [
            {
              "internalType": "uint256",
              "name": "itemId",
              "type": "uint256"
            },
            {
              "internalType": "address",
              "name": "bagContract",
              "type": "address"
            },
            {
              "internalType": "uint256",
              "name": "bagId",
              "type": "uint256"
            },
            {
              "internalType": "uint256",
              "name": "chips",
              "type": "uint256"
            },
            {
              "internalType": "address payable",
              "name": "owner",
              "type": "address"
            }
          ],
          "internalType": "struct House.Bag",
          "name": "bag",
          "type": "tuple"
        }
      ],
      "stateMutability": "view",
      "type": "function",
      "constant": true
    },
    {
      "inputs": [
        {
          "internalType": "address",
          "name": "_bagContract",
          "type": "address"
        },
        {
          "internalType": "uint256",
          "name": "_bagId",
          "type": "uint256"
        }
      ],
      "name": "createBag",
      "outputs": [],
      "stateMutability": "payable",
      "type": "function",
      "payable": true
    },
    {
      "inputs": [],
      "name": "getChipBalance",
      "outputs": [
        {
          "internalType": "uint256",
          "name": "",
          "type": "uint256"
        }
      ],
      "stateMutability": "view",
      "type": "function",
      "constant": true
    },
    {
      "inputs": [
        {
          "internalType": "uint256",
          "name": "_amount",
          "type": "uint256"
        }
      ],
      "name": "buyChips",
      "outputs": [],
      "stateMutability": "payable",
      "type": "function",
      "payable": true
    },
    {
      "inputs": [
        {
          "internalType": "uint256",
          "name": "_amount",
          "type": "uint256"
        }
      ],
      "name": "cashIn",
      "outputs": [],
      "stateMutability": "nonpayable",
      "type": "function"
    }
  ],
  "bytecode": "0x60806040526658d15e17628000600255655af3107a40006003553480156200002657600080fd5b50604051620016da380380620016da83398181016040528101906200004c919062000147565b600160008190555033600460006101000a81548173ffffffffffffffffffffffffffffffffffffffff021916908373ffffffffffffffffffffffffffffffffffffffff16021790555080600560006101000a81548173ffffffffffffffffffffffffffffffffffffffff021916908373ffffffffffffffffffffffffffffffffffffffff1602179055505062000179565b600080fd5b600073ffffffffffffffffffffffffffffffffffffffff82169050919050565b60006200010f82620000e2565b9050919050565b620001218162000102565b81146200012d57600080fd5b50565b600081519050620001418162000116565b92915050565b60006020828403121562000160576200015f620000dd565b5b6000620001708482850162000130565b91505092915050565b61155180620001896000396000f3fe6080604052600436106100865760003560e01c80637d1b8be5116100595780637d1b8be5146101375780639643245f14610162578063a140c9a01461018d578063c3296673146101a9578063fda499c7146101d257610086565b8063048854081461008b57806318160ddd146100b65780634320c7d0146100e157806368bd0a251461010c575b600080fd5b34801561009757600080fd5b506100a06101ee565b6040516100ad9190610edc565b60405180910390f35b3480156100c257600080fd5b506100cb6103df565b6040516100d89190610f06565b60405180910390f35b3480156100ed57600080fd5b506100f66103f0565b6040516101039190610f06565b60405180910390f35b34801561011857600080fd5b506101216103fa565b60405161012e9190610f3c565b60405180910390f35b34801561014357600080fd5b5061014c610493565b6040516101599190610f06565b60405180910390f35b34801561016e57600080fd5b506101776105ad565b6040516101849190610f06565b60405180910390f35b6101a760048036038101906101a29190610f88565b6105b7565b005b3480156101b557600080fd5b506101d060048036038101906101cb9190610f88565b6107e6565b005b6101ec60048036038101906101e79190610fe1565b610a5f565b005b6101f6610d9e565b3373ffffffffffffffffffffffffffffffffffffffff16600660003373ffffffffffffffffffffffffffffffffffffffff1673ffffffffffffffffffffffffffffffffffffffff16815260200190815260200160002060040160009054906101000a900473ffffffffffffffffffffffffffffffffffffffff1673ffffffffffffffffffffffffffffffffffffffff16146102c6576040517f08c379a00000000000000000000000000000000000000000000000000000000081526004016102bd9061107e565b60405180910390fd5b600660003373ffffffffffffffffffffffffffffffffffffffff1673ffffffffffffffffffffffffffffffffffffffff1681526020019081526020016000206040518060a0016040529081600082015481526020016001820160009054906101000a900473ffffffffffffffffffffffffffffffffffffffff1673ffffffffffffffffffffffffffffffffffffffff1673ffffffffffffffffffffffffffffffffffffffff16815260200160028201548152602001600382015481526020016004820160009054906101000a900473ffffffffffffffffffffffffffffffffffffffff1673ffffffffffffffffffffffffffffffffffffffff1673ffffffffffffffffffffffffffffffffffffffff1681525050905090565b60006103eb6001610d7a565b905090565b6000600354905090565b60008073ffffffffffffffffffffffffffffffffffffffff16600660003373ffffffffffffffffffffffffffffffffffffffff1673ffffffffffffffffffffffffffffffffffffffff16815260200190815260200160002060040160009054906101000a900473ffffffffffffffffffffffffffffffffffffffff1673ffffffffffffffffffffffffffffffffffffffff161415905090565b60003373ffffffffffffffffffffffffffffffffffffffff16600660003373ffffffffffffffffffffffffffffffffffffffff1673ffffffffffffffffffffffffffffffffffffffff16815260200190815260200160002060040160009054906101000a900473ffffffffffffffffffffffffffffffffffffffff1673ffffffffffffffffffffffffffffffffffffffff1614610565576040517f08c379a000000000000000000000000000000000000000000000000000000000815260040161055c9061107e565b60405180910390fd5b600660003373ffffffffffffffffffffffffffffffffffffffff1673ffffffffffffffffffffffffffffffffffffffff16815260200190815260200160002060030154905090565b6000600254905090565b600260005414156105fd576040517f08c379a00000000000000000000000000000000000000000000000000000000081526004016105f4906110ea565b60405180910390fd5b6002600081905550806003546106139190611139565b3414610654576040517f08c379a000000000000000000000000000000000000000000000000000000000815260040161064b906111df565b60405180910390fd5b600560009054906101000a900473ffffffffffffffffffffffffffffffffffffffff1673ffffffffffffffffffffffffffffffffffffffff166323b872dd3330346040518463ffffffff1660e01b81526004016106b39392919061120e565b602060405180830381600087803b1580156106cd57600080fd5b505af11580156106e1573d6000803e3d6000fd5b505050506040513d601f19601f820116820180604052508101906107059190611271565b5080600660003373ffffffffffffffffffffffffffffffffffffffff1673ffffffffffffffffffffffffffffffffffffffff1681526020019081526020016000206003016000828254610758919061129e565b92505081905550807fe47f0862fe3ff8a9791188a52cdd4da991a884e6fa752535b109ad268b7edc26600660003373ffffffffffffffffffffffffffffffffffffffff1673ffffffffffffffffffffffffffffffffffffffff16815260200190815260200160002060020154336040516107d39291906112f4565b60405180910390a2600160008190555050565b6002600054141561082c576040517f08c379a0000000000000000000000000000000000000000000000000000000008152600401610823906110ea565b60405180910390fd5b60026000819055508080600660003373ffffffffffffffffffffffffffffffffffffffff1673ffffffffffffffffffffffffffffffffffffffff1681526020019081526020016000206003015410156108ba576040517f08c379a00000000000000000000000000000000000000000000000000000000081526004016108b190611369565b60405180910390fd5b6000600354836108ca9190611139565b9050600560009054906101000a900473ffffffffffffffffffffffffffffffffffffffff1673ffffffffffffffffffffffffffffffffffffffff1663a9059cbb33836040518363ffffffff1660e01b8152600401610929929190611389565b602060405180830381600087803b15801561094357600080fd5b505af1158015610957573d6000803e3d6000fd5b505050506040513d601f19601f8201168201806040525081019061097b9190611271565b5082600660003373ffffffffffffffffffffffffffffffffffffffff1673ffffffffffffffffffffffffffffffffffffffff16815260200190815260200160002060030160008282546109ce91906113b2565b925050819055507f2f9a3348a01c591666305a926bd24cbb281f4e61cbea9b2f6a4a8f295294e6a283600660003373ffffffffffffffffffffffffffffffffffffffff1673ffffffffffffffffffffffffffffffffffffffff1681526020019081526020016000206002015433604051610a4a939291906113e6565b60405180910390a15050600160008190555050565b60026000541415610aa5576040517f08c379a0000000000000000000000000000000000000000000000000000000008152600401610a9c906110ea565b60405180910390fd5b6002600081905550600073ffffffffffffffffffffffffffffffffffffffff16600660003373ffffffffffffffffffffffffffffffffffffffff1673ffffffffffffffffffffffffffffffffffffffff16815260200190815260200160002060040160009054906101000a900473ffffffffffffffffffffffffffffffffffffffff1673ffffffffffffffffffffffffffffffffffffffff1614610b7e576040517f08c379a0000000000000000000000000000000000000000000000000000000008152600401610b7590611469565b60405180910390fd5b6002543414610bc2576040517f08c379a0000000000000000000000000000000000000000000000000000000008152600401610bb9906114fb565b60405180910390fd5b610bcc6001610d88565b6000610bd86001610d7a565b90506040518060a001604052808281526020018473ffffffffffffffffffffffffffffffffffffffff168152602001838152602001600081526020013373ffffffffffffffffffffffffffffffffffffffff16815250600660003373ffffffffffffffffffffffffffffffffffffffff1673ffffffffffffffffffffffffffffffffffffffff1681526020019081526020016000206000820151816000015560208201518160010160006101000a81548173ffffffffffffffffffffffffffffffffffffffff021916908373ffffffffffffffffffffffffffffffffffffffff160217905550604082015181600201556060820151816003015560808201518160040160006101000a81548173ffffffffffffffffffffffffffffffffffffffff021916908373ffffffffffffffffffffffffffffffffffffffff1602179055509050508273ffffffffffffffffffffffffffffffffffffffff16817f277ba532b3bebde8981cf4562fca539145bc5793a422e24ec4eb9f17212f5a4f8433604051610d659291906112f4565b60405180910390a35060016000819055505050565b600081600001549050919050565b6001816000016000828254019250508190555050565b6040518060a0016040528060008152602001600073ffffffffffffffffffffffffffffffffffffffff1681526020016000815260200160008152602001600073ffffffffffffffffffffffffffffffffffffffff1681525090565b6000819050919050565b610e0c81610df9565b82525050565b600073ffffffffffffffffffffffffffffffffffffffff82169050919050565b6000610e3d82610e12565b9050919050565b610e4d81610e32565b82525050565b6000610e5e82610e12565b9050919050565b610e6e81610e53565b82525050565b60a082016000820151610e8a6000850182610e03565b506020820151610e9d6020850182610e44565b506040820151610eb06040850182610e03565b506060820151610ec36060850182610e03565b506080820151610ed66080850182610e65565b50505050565b600060a082019050610ef16000830184610e74565b92915050565b610f0081610df9565b82525050565b6000602082019050610f1b6000830184610ef7565b92915050565b60008115159050919050565b610f3681610f21565b82525050565b6000602082019050610f516000830184610f2d565b92915050565b600080fd5b610f6581610df9565b8114610f7057600080fd5b50565b600081359050610f8281610f5c565b92915050565b600060208284031215610f9e57610f9d610f57565b5b6000610fac84828501610f73565b91505092915050565b610fbe81610e32565b8114610fc957600080fd5b50565b600081359050610fdb81610fb5565b92915050565b60008060408385031215610ff857610ff7610f57565b5b600061100685828601610fcc565b925050602061101785828601610f73565b9150509250929050565b600082825260208201905092915050565b7f4f6e6c7920626167206f776e65722063616e2061636365737320626167000000600082015250565b6000611068601d83611021565b915061107382611032565b602082019050919050565b600060208201905081810360008301526110978161105b565b9050919050565b7f5265656e7472616e637947756172643a207265656e7472616e742063616c6c00600082015250565b60006110d4601f83611021565b91506110df8261109e565b602082019050919050565b60006020820190508181036000830152611103816110c7565b9050919050565b7f4e487b7100000000000000000000000000000000000000000000000000000000600052601160045260246000fd5b600061114482610df9565b915061114f83610df9565b9250817fffffffffffffffffffffffffffffffffffffffffffffffffffffffffffffffff04831182151516156111885761118761110a565b5b828202905092915050565b7f5072696365206d75737420657175616c2076616c7565206f6620636869707300600082015250565b60006111c9601f83611021565b91506111d482611193565b602082019050919050565b600060208201905081810360008301526111f8816111bc565b9050919050565b61120881610e32565b82525050565b600060608201905061122360008301866111ff565b61123060208301856111ff565b61123d6040830184610ef7565b949350505050565b61124e81610f21565b811461125957600080fd5b50565b60008151905061126b81611245565b92915050565b60006020828403121561128757611286610f57565b5b60006112958482850161125c565b91505092915050565b60006112a982610df9565b91506112b483610df9565b9250827fffffffffffffffffffffffffffffffffffffffffffffffffffffffffffffffff038211156112e9576112e861110a565b5b828201905092915050565b60006040820190506113096000830185610ef7565b61131660208301846111ff565b9392505050565b7f4d757374206861766520656e6f75676820636869707300000000000000000000600082015250565b6000611353601683611021565b915061135e8261131d565b602082019050919050565b6000602082019050818103600083015261138281611346565b9050919050565b600060408201905061139e60008301856111ff565b6113ab6020830184610ef7565b9392505050565b60006113bd82610df9565b91506113c883610df9565b9250828210156113db576113da61110a565b5b828203905092915050565b60006060820190506113fb6000830186610ef7565b6114086020830185610ef7565b61141560408301846111ff565b949350505050565b7f4f6e6c79206f6e65206261672070657220706572736f6e000000000000000000600082015250565b6000611453601783611021565b915061145e8261141d565b602082019050919050565b6000602082019050818103600083015261148281611446565b9050919050565b7f5072696365206d75737420657175616c2062616720707572636861736520707260008201527f6963650000000000000000000000000000000000000000000000000000000000602082015250565b60006114e5602383611021565b91506114f082611489565b604082019050919050565b60006020820190508181036000830152611514816114d8565b905091905056fea26469706673582212204ec622180363af5aefae1dc395cf29a63c76fb6f7534de76acf83485d9ac56a364736f6c63430008080033",
  "immutableReferences": {},
  "source": "// SPDX-License-Identifier: MIT\npragma solidity ^0.8.0;\n\nimport \"@openzeppelin/contracts/utils/Counters.sol\";\nimport \"@openzeppelin/contracts/security/ReentrancyGuard.sol\";\nimport \"@openzeppelin/contracts/token/ERC20/ERC20.sol\";\nimport \"@openzeppelin/contracts/token/ERC721/ERC721.sol\";\n\ncontract House is ReentrancyGuard {\n    using Counters for Counters.Counter;\n    Counters.Counter private _itemIds;\n    uint256 bagPrice = 0.025 ether;\n    uint256 chipPrice = 0.0001 ether;\n\n    address payable owner;\n    address cbjAddress;\n\n    constructor(address _cbjAddress) {\n        owner = payable(msg.sender);\n        cbjAddress = _cbjAddress;\n    }\n\n    struct Bag {\n        uint256 itemId;\n        address bagContract;\n        uint256 bagId;\n        uint256 chips;\n        address payable owner;\n    }\n\n    mapping(address => Bag) private addressToBag;\n\n    event BagCreated(\n        uint256 indexed itemId,\n        address indexed bagContract,\n        uint256 bagId,\n        address owner\n    );\n\n    event ChipsBought(uint256 indexed chips, uint256 bagId, address owner);\n    event ChipsCashedIn(uint256 chips, uint256 bagId, address owner);\n\n    function getBagPrice() public view returns (uint256) {\n        return bagPrice;\n    }\n\n    function getChipPrice() public view returns (uint256) {\n        return chipPrice;\n    }\n\n    function totalSupply() external view returns (uint256) {\n        return _itemIds.current();\n    }\n\n    modifier onlyOneBag() {\n        require(\n            addressToBag[msg.sender].owner == address(0),\n            \"Only one bag per person\"\n        );\n        _;\n    }\n\n    modifier onlyBagOwner() {\n        require(\n            addressToBag[msg.sender].owner == msg.sender,\n            \"Only bag owner can access bag\"\n        );\n        _;\n    }\n\n    function bagExists() external view returns (bool) {\n        return addressToBag[msg.sender].owner != address(0);\n    }\n\n    function getBag() external view onlyBagOwner returns (Bag memory bag) {\n        return addressToBag[msg.sender];\n    }\n\n    function createBag(address _bagContract, uint256 _bagId)\n        public\n        payable\n        nonReentrant\n        onlyOneBag\n    {\n        require(msg.value == bagPrice, \"Price must equal bag purchase price\");\n        _itemIds.increment();\n        uint256 itemId = _itemIds.current();\n\n        addressToBag[msg.sender] = Bag(\n            itemId,\n            _bagContract,\n            _bagId,\n            0,\n            payable(msg.sender)\n        );\n\n        emit BagCreated(itemId, _bagContract, _bagId, msg.sender);\n    }\n\n    function getChipBalance() external view onlyBagOwner returns (uint256) {\n        return addressToBag[msg.sender].chips;\n    }\n\n    function buyChips(uint256 _amount) public payable nonReentrant {\n        require(\n            msg.value == chipPrice * _amount,\n            \"Price must equal value of chips\"\n        );\n\n        IERC20(cbjAddress).transferFrom(msg.sender, address(this), msg.value);\n        addressToBag[msg.sender].chips += _amount;\n\n        emit ChipsBought(_amount, addressToBag[msg.sender].bagId, msg.sender);\n    }\n\n    modifier enoughChips(uint256 _amount) {\n        require(\n            addressToBag[msg.sender].chips >= _amount,\n            \"Must have enough chips\"\n        );\n        _;\n    }\n\n    function cashIn(uint256 _amount) public nonReentrant enoughChips(_amount) {\n        uint256 value = _amount * chipPrice;\n        IERC20(cbjAddress).transfer(msg.sender, value);\n        addressToBag[msg.sender].chips -= _amount;\n\n        emit ChipsCashedIn(_amount, addressToBag[msg.sender].bagId, msg.sender);\n    }\n}\n",
  "sourcePath": "/home/elcoacho/blockchain-workspace/cbj/contracts/House.sol",
  "compiler": {
    "name": "solc",
    "version": "0.8.8+commit.dddeac2f.Emscripten.clang"
  },
  "schemaVersion": "3.4.1",
  "updatedAt": "2021-09-29T03:06:29.879Z",
  "networkType": "ethereum",
  "devdoc": {
    "kind": "dev",
    "methods": {},
    "version": 1
  },
  "userdoc": {
    "kind": "user",
    "methods": {},
    "version": 1
  }
}